{
  "contractName": "MetaCoin",
  "abi": [
    {
      "inputs": [],
      "stateMutability": "nonpayable",
      "type": "constructor"
    },
    {
      "anonymous": false,
      "inputs": [
        {
          "indexed": false,
          "internalType": "address[]",
          "name": "",
          "type": "address[]"
        }
      ],
      "name": "GetHolders",
      "type": "event"
    },
    {
      "anonymous": false,
      "inputs": [
        {
          "indexed": false,
          "internalType": "uint256",
          "name": "",
          "type": "uint256"
        }
      ],
      "name": "GetMaxHolderNum",
      "type": "event"
    },
    {
      "anonymous": false,
      "inputs": [
        {
          "indexed": false,
          "internalType": "uint256",
          "name": "",
          "type": "uint256"
        }
      ],
      "name": "GetNFTNum",
      "type": "event"
    },
    {
      "anonymous": false,
      "inputs": [
        {
          "indexed": false,
          "internalType": "address[]",
          "name": "",
          "type": "address[]"
        }
      ],
      "name": "GetNTFs",
      "type": "event"
    },
    {
      "anonymous": false,
      "inputs": [
        {
          "indexed": false,
          "internalType": "uint256",
          "name": "",
          "type": "uint256"
        }
      ],
      "name": "GetRand",
      "type": "event"
    },
    {
      "anonymous": false,
      "inputs": [
        {
          "indexed": false,
          "internalType": "string[]",
          "name": "",
          "type": "string[]"
        }
      ],
      "name": "GetTokenId",
      "type": "event"
    },
    {
      "anonymous": false,
      "inputs": [
        {
          "indexed": false,
          "internalType": "address[]",
          "name": "",
          "type": "address[]"
        }
      ],
      "name": "NFTAddressSwapped",
      "type": "event"
    },
    {
      "anonymous": false,
      "inputs": [
        {
          "indexed": false,
          "internalType": "string[]",
          "name": "",
          "type": "string[]"
        }
      ],
      "name": "TokenIdSwapped",
      "type": "event"
    },
    {
      "inputs": [
        {
          "internalType": "uint256",
          "name": "",
          "type": "uint256"
        }
      ],
      "name": "swappedNFTView",
      "outputs": [
        {
          "internalType": "address",
          "name": "",
          "type": "address"
        }
      ],
      "stateMutability": "view",
      "type": "function",
      "constant": true
    },
    {
      "inputs": [
        {
          "internalType": "uint256",
          "name": "",
          "type": "uint256"
        }
      ],
      "name": "swappedTokenIdView",
      "outputs": [
        {
          "internalType": "string",
          "name": "",
          "type": "string"
        }
      ],
      "stateMutability": "view",
      "type": "function",
      "constant": true
    },
    {
      "inputs": [],
      "name": "viewSwappedNFT",
      "outputs": [
        {
          "internalType": "address[]",
          "name": "",
          "type": "address[]"
        }
      ],
      "stateMutability": "view",
      "type": "function",
      "constant": true
    },
    {
      "inputs": [],
      "name": "viewSwappedId",
      "outputs": [
        {
          "internalType": "string[]",
          "name": "",
          "type": "string[]"
        }
      ],
      "stateMutability": "view",
      "type": "function",
      "constant": true
    },
    {
      "inputs": [
        {
          "internalType": "address[]",
          "name": "holders",
          "type": "address[]"
        },
        {
          "internalType": "address[]",
          "name": "NFTs",
          "type": "address[]"
        },
        {
          "internalType": "string[]",
          "name": "tokenIds",
          "type": "string[]"
        }
      ],
      "name": "operateSwap",
      "outputs": [
        {
          "internalType": "address[]",
          "name": "",
          "type": "address[]"
        },
        {
          "internalType": "string[]",
          "name": "",
          "type": "string[]"
        }
      ],
      "stateMutability": "nonpayable",
      "type": "function"
    }
  ],
  "bytecode": "0x608060405234801561001057600080fd5b506127106000803273ffffffffffffffffffffffffffffffffffffffff1673ffffffffffffffffffffffffffffffffffffffff1681526020019081526020016000208190555061148a806100656000396000f3fe608060405234801561001057600080fd5b50600436106100575760003560e01c8063177c67fb1461005c57806335cbed701461007a578063373d1d44146100aa578063754b9eaa146100db578063fcf29c8d146100f9575b600080fd5b610064610129565b6040516100719190610b3a565b60405180910390f35b610094600480360381019061008f9190610ba6565b6101b7565b6040516100a19190610c6c565b60405180910390f35b6100c460048036038101906100bf9190610f98565b610263565b6040516100d292919061114b565b60405180910390f35b6100e3610741565b6040516100f09190611182565b60405180910390f35b610113600480360381019061010e9190610ba6565b61081a565b60405161012091906111b3565b60405180910390f35b606060018054806020026020016040519081016040528092919081815260200182805480156101ad57602002820191906000526020600020905b8160009054906101000a900473ffffffffffffffffffffffffffffffffffffffff1673ffffffffffffffffffffffffffffffffffffffff1681526020019060010190808311610163575b5050505050905090565b600281815481106101c757600080fd5b9060005260206000200160009150905080546101e2906111fd565b80601f016020809104026020016040519081016040528092919081815260200182805461020e906111fd565b801561025b5780601f106102305761010080835404028352916020019161025b565b820191906000526020600020905b81548152906001019060200180831161023e57829003601f168201915b505050505081565b6060807f6919e7d32488315ea9a4420a5363c28fb9ddc3bb891468cf75e8344941293fae856040516102959190610b3a565b60405180910390a17f18ccef2bdaafaf2eea13c99239cba0e2ef197b5d3ae6d0526a4d1aa34f5d970f846040516102cc9190610b3a565b60405180910390a17f4b2b6b47c02f7460c3f1eb46d38929432aa151c5cf50c46bf01b023ce812031c836040516103039190611182565b60405180910390a16000855190506000600190506000600190506000600190505b838110156103d7578860018261033a919061125d565b8151811061034b5761034a611291565b5b602002602001015173ffffffffffffffffffffffffffffffffffffffff1689828151811061037c5761037b611291565b5b602002602001015173ffffffffffffffffffffffffffffffffffffffff16036103bf576001836103ac91906112c0565b9250818311156103ba578291505b6103c4565b600192505b80806103cf90611316565b915050610324565b507f09e70100b952b88163f5f205662f95c4b3b3c77b539816f2b74d4f93948de67983604051610407919061136d565b60405180910390a17f04997ecb47ec9b8bdb04f0324d430f47b3811a6dea4103483cfe696c5725275a8160405161043e919061136d565b60405180910390a16000819050600060018561045a919061125d565b90508181101561049f576040517f08c379a0000000000000000000000000000000000000000000000000000000008152600401610496906113d4565b60405180910390fd5b600082600184846104b0919061125d565b6104ba91906112c0565b426104c59190611423565b6104cf91906112c0565b90507f83aff775b3a72f73749b1d5f3c4edd32deeb7fc432e1d731fedef2ed0dc74c7d81604051610500919061136d565b60405180910390a160008667ffffffffffffffff81111561052457610523610c93565b5b6040519080825280602002602001820160405280156105525781602001602082028036833780820191505090505b50905060008767ffffffffffffffff81111561057157610570610c93565b5b6040519080825280602002602001820160405280156105a457816020015b606081526020019060019003908161058f5790505b50905060005b8881101561068e5760008985836105c191906112c0565b6105cb9190611423565b905060008e82815181106105e2576105e1611291565b5b6020026020010151905060008e838151811061060157610600611291565b5b602002602001015190508186858151811061061f5761061e611291565b5b602002602001019073ffffffffffffffffffffffffffffffffffffffff16908173ffffffffffffffffffffffffffffffffffffffff16815250508085858151811061066d5761066c611291565b5b6020026020010181905250505050808061068690611316565b9150506105aa565b507f7db713b4c9e5b5c020c533be70cd1ecb7c019327cca5fe1453a9603250122655816040516106be9190611182565b60405180910390a17fd4b0110a89ffffe1daea7aeb07e4fb6e5b7d9783a76aabd43783a683d8795fa5826040516106f59190610b3a565b60405180910390a18160019080519060200190610713929190610859565b50806002908051906020019061072a9291906108e3565b508181995099505050505050505050935093915050565b60606002805480602002602001604051908101604052809291908181526020016000905b82821015610811578382906000526020600020018054610784906111fd565b80601f01602080910402602001604051908101604052809291908181526020018280546107b0906111fd565b80156107fd5780601f106107d2576101008083540402835291602001916107fd565b820191906000526020600020905b8154815290600101906020018083116107e057829003601f168201915b505050505081526020019060010190610765565b50505050905090565b6001818154811061082a57600080fd5b906000526020600020016000915054906101000a900473ffffffffffffffffffffffffffffffffffffffff1681565b8280548282559060005260206000209081019282156108d2579160200282015b828111156108d15782518260006101000a81548173ffffffffffffffffffffffffffffffffffffffff021916908373ffffffffffffffffffffffffffffffffffffffff16021790555091602001919060010190610879565b5b5090506108df9190610943565b5090565b828054828255906000526020600020908101928215610932579160200282015b82811115610931578251829080519060200190610921929190610960565b5091602001919060010190610903565b5b50905061093f91906109e6565b5090565b5b8082111561095c576000816000905550600101610944565b5090565b82805461096c906111fd565b90600052602060002090601f01602090048101928261098e57600085556109d5565b82601f106109a757805160ff19168380011785556109d5565b828001600101855582156109d5579182015b828111156109d45782518255916020019190600101906109b9565b5b5090506109e29190610943565b5090565b5b80821115610a0657600081816109fd9190610a0a565b506001016109e7565b5090565b508054610a16906111fd565b6000825580601f10610a285750610a47565b601f016020900490600052602060002090810190610a469190610943565b5b50565b600081519050919050565b600082825260208201905092915050565b6000819050602082019050919050565b600073ffffffffffffffffffffffffffffffffffffffff82169050919050565b6000610aa182610a76565b9050919050565b610ab181610a96565b82525050565b6000610ac38383610aa8565b60208301905092915050565b6000602082019050919050565b6000610ae782610a4a565b610af18185610a55565b9350610afc83610a66565b8060005b83811015610b2d578151610b148882610ab7565b9750610b1f83610acf565b925050600181019050610b00565b5085935050505092915050565b60006020820190508181036000830152610b548184610adc565b905092915050565b6000604051905090565b600080fd5b600080fd5b6000819050919050565b610b8381610b70565b8114610b8e57600080fd5b50565b600081359050610ba081610b7a565b92915050565b600060208284031215610bbc57610bbb610b66565b5b6000610bca84828501610b91565b91505092915050565b600081519050919050565b600082825260208201905092915050565b60005b83811015610c0d578082015181840152602081019050610bf2565b83811115610c1c576000848401525b50505050565b6000601f19601f8301169050919050565b6000610c3e82610bd3565b610c488185610bde565b9350610c58818560208601610bef565b610c6181610c22565b840191505092915050565b60006020820190508181036000830152610c868184610c33565b905092915050565b600080fd5b7f4e487b7100000000000000000000000000000000000000000000000000000000600052604160045260246000fd5b610ccb82610c22565b810181811067ffffffffffffffff82111715610cea57610ce9610c93565b5b80604052505050565b6000610cfd610b5c565b9050610d098282610cc2565b919050565b600067ffffffffffffffff821115610d2957610d28610c93565b5b602082029050602081019050919050565b600080fd5b610d4881610a96565b8114610d5357600080fd5b50565b600081359050610d6581610d3f565b92915050565b6000610d7e610d7984610d0e565b610cf3565b90508083825260208201905060208402830185811115610da157610da0610d3a565b5b835b81811015610dca5780610db68882610d56565b845260208401935050602081019050610da3565b5050509392505050565b600082601f830112610de957610de8610c8e565b5b8135610df9848260208601610d6b565b91505092915050565b600067ffffffffffffffff821115610e1d57610e1c610c93565b5b602082029050602081019050919050565b600080fd5b600067ffffffffffffffff821115610e4e57610e4d610c93565b5b610e5782610c22565b9050602081019050919050565b82818337600083830152505050565b6000610e86610e8184610e33565b610cf3565b905082815260208101848484011115610ea257610ea1610e2e565b5b610ead848285610e64565b509392505050565b600082601f830112610eca57610ec9610c8e565b5b8135610eda848260208601610e73565b91505092915050565b6000610ef6610ef184610e02565b610cf3565b90508083825260208201905060208402830185811115610f1957610f18610d3a565b5b835b81811015610f6057803567ffffffffffffffff811115610f3e57610f3d610c8e565b5b808601610f4b8982610eb5565b85526020850194505050602081019050610f1b565b5050509392505050565b600082601f830112610f7f57610f7e610c8e565b5b8135610f8f848260208601610ee3565b91505092915050565b600080600060608486031215610fb157610fb0610b66565b5b600084013567ffffffffffffffff811115610fcf57610fce610b6b565b5b610fdb86828701610dd4565b935050602084013567ffffffffffffffff811115610ffc57610ffb610b6b565b5b61100886828701610dd4565b925050604084013567ffffffffffffffff81111561102957611028610b6b565b5b61103586828701610f6a565b9150509250925092565b600081519050919050565b600082825260208201905092915050565b6000819050602082019050919050565b600082825260208201905092915050565b600061108782610bd3565b611091818561106b565b93506110a1818560208601610bef565b6110aa81610c22565b840191505092915050565b60006110c1838361107c565b905092915050565b6000602082019050919050565b60006110e18261103f565b6110eb818561104a565b9350836020820285016110fd8561105b565b8060005b85811015611139578484038952815161111a85826110b5565b9450611125836110c9565b925060208a01995050600181019050611101565b50829750879550505050505092915050565b600060408201905081810360008301526111658185610adc565b9050818103602083015261117981846110d6565b90509392505050565b6000602082019050818103600083015261119c81846110d6565b905092915050565b6111ad81610a96565b82525050565b60006020820190506111c860008301846111a4565b92915050565b7f4e487b7100000000000000000000000000000000000000000000000000000000600052602260045260246000fd5b6000600282049050600182168061121557607f821691505b602082108103611228576112276111ce565b5b50919050565b7f4e487b7100000000000000000000000000000000000000000000000000000000600052601160045260246000fd5b600061126882610b70565b915061127383610b70565b9250828210156112865761128561122e565b5b828203905092915050565b7f4e487b7100000000000000000000000000000000000000000000000000000000600052603260045260246000fd5b60006112cb82610b70565b91506112d683610b70565b9250827fffffffffffffffffffffffffffffffffffffffffffffffffffffffffffffffff0382111561130b5761130a61122e565b5b828201905092915050565b600061132182610b70565b91507fffffffffffffffffffffffffffffffffffffffffffffffffffffffffffffffff82036113535761135261122e565b5b600182019050919050565b61136781610b70565b82525050565b6000602082019050611382600083018461135e565b92915050565b7f3131312062616420726571756573740000000000000000000000000000000000600082015250565b60006113be600f83610bde565b91506113c982611388565b602082019050919050565b600060208201905081810360008301526113ed816113b1565b9050919050565b7f4e487b7100000000000000000000000000000000000000000000000000000000600052601260045260246000fd5b600061142e82610b70565b915061143983610b70565b925082611449576114486113f4565b5b82820690509291505056fea2646970667358221220252c8ccff2102ff318d5216934a35f2db1bf79b592545e92ee873b3a6a86f00364736f6c634300080d0033",
  "immutableReferences": {},
  "source": "// SPDX-License-Identifier: MIT\n// Tells the Solidity compiler to compile only from v0.8.13 to v0.9.0\npragma solidity ^0.8.13;\n\n\n// This is just a simple example of a coin-like contract.\n// It is not ERC20 compatible and cannot be expected to talk to other\n// coin/token contracts.\n\ncontract MetaCoin {\n\tmapping (address => uint) balances;\n\n\tevent GetHolders(address[]);\n\tevent GetNTFs(address[]);\n\tevent GetTokenId(string[]);\n\n\tevent GetNFTNum(uint256);\n\n\tevent GetMaxHolderNum(uint256);\n\tevent GetRand(uint256);\n\tevent NFTAddressSwapped(address[]);\n\tevent TokenIdSwapped(string[]);\n\n\tstruct SingleUserInput {\n\t\taddress owner;\n\t\taddress[] NFTs;\n\t}\n\n\taddress[] public swappedNFTView;\n\tstring[] public swappedTokenIdView;\n\t\n\tconstructor() {\n\t\tbalances[tx.origin] = 10000;\n\t}\n\n\tfunction viewSwappedNFT() public view returns(address[] memory) {\n\t\treturn swappedNFTView;\n\t}\n\t\n\tfunction viewSwappedId() public view returns(string[] memory){\n\t\treturn swappedTokenIdView; \n\t}\n\n\tfunction operateSwap(address[] memory holders, address[] memory NFTs, string[] memory tokenIds) public returns(address[] memory, string[] memory) {\n\t\temit GetHolders(holders);\n\t\temit GetNTFs(NFTs);\n\t\temit GetTokenId(tokenIds);\n\n\t\tuint256 numTotalNFT = holders.length;\n\t\tuint256 curCount = 1;\n\t\tuint256 maxHolderNum = 1;\n\t\tfor (uint i = 1; i < numTotalNFT; i++){\n\t\t\tif (holders[i] == holders[i-1]){\n\t\t\t\tcurCount += 1;\n\t\t\t\tif (curCount > maxHolderNum){\n\t\t\t\t\tmaxHolderNum = curCount;\n\t\t\t\t}\n\t\t\t} else {\n\t\t\t\tcurCount = 1;\n\t\t\t}\n\t\t}\n\t\temit GetNFTNum(numTotalNFT);\n\t\temit GetMaxHolderNum(maxHolderNum);\n\t\t\n\t\tuint256 offsetMin = maxHolderNum; // inclusive\n\t\tuint256 offsetMax = numTotalNFT - 1; // inclusive\n\t\trequire(offsetMax >= offsetMin, '111 bad request');\n\n\t\tuint256 psuedoRand = (block.timestamp) % (offsetMax - offsetMin + 1) + offsetMin;\n\t\t// eventually need the list of NFTs, the list of holders, and the list of repeated holders (their # of NFTs, at the right position with NFT list)\n\t\t// output of the algorithm will be another list of NFTs (after move the amount of offset) \n\t\t// Would be the best choice to use array as input & output - we don't need to convert back and forth from struct or map\n\t\temit GetRand(psuedoRand);\n\n\t\taddress[] memory swappedNFTs = new address[](numTotalNFT);\n\t\tstring[] memory swappedTokenIds = new string[](numTotalNFT);\t\n\t\tfor (uint i = 0; i < numTotalNFT; i++) {\n\t\t\tuint256 offsetIndex = (i + psuedoRand)%numTotalNFT;\n\t\t\taddress targetNFT = NFTs[offsetIndex];\n\t\t\t// address targetHolder = holders[offsetIndex];\n\t\t\tstring memory targetTokenId = tokenIds[offsetIndex];\n\t\t\t// address currentHolder = holders[i];\n\t\t\tswappedNFTs[i] = targetNFT;\n\t\t\tswappedTokenIds[i] = targetTokenId; \n\t\t\t// Need to do the real swap logic, assign the pointed NFT to the current address\n\t\t\t// IERC721(targetNFT).safeTransferFrom(currentHolder, targetHolder, tokenId)\n\t\t}\n\t\temit TokenIdSwapped(swappedTokenIds);\n\t\temit NFTAddressSwapped(swappedNFTs);\n\n\t\tswappedNFTView = swappedNFTs;\n\t\tswappedTokenIdView = swappedTokenIds;\n\t\t\t\n\t\treturn (swappedNFTs, swappedTokenIds);\n\t}\n\n}\n",
  "sourcePath": "/Users/jing/white-elefun/backend/contracts/MetaCoin.sol",
  "compiler": {
    "name": "solc",
    "version": "0.8.13+commit.abaa5c0e.Emscripten.clang"
  },
  "schemaVersion": "3.4.10",
  "updatedAt": "2022-11-06T01:06:02.409Z",
  "networkType": "ethereum",
  "devdoc": {
    "kind": "dev",
    "methods": {},
    "version": 1
  },
  "userdoc": {
    "kind": "user",
    "methods": {},
    "version": 1
  }
}