{
  "contractName": "MetaCoin",
  "abi": [
    {
      "inputs": [],
      "stateMutability": "nonpayable",
      "type": "constructor"
    },
    {
      "anonymous": false,
      "inputs": [
        {
          "indexed": false,
          "internalType": "string",
          "name": "",
          "type": "string"
        },
        {
          "indexed": false,
          "internalType": "uint256",
          "name": "",
          "type": "uint256"
        }
      ],
      "name": "ConvertTokenId",
      "type": "event"
    },
    {
      "anonymous": false,
      "inputs": [
        {
          "indexed": false,
          "internalType": "address[]",
          "name": "",
          "type": "address[]"
        }
      ],
      "name": "GetHolders",
      "type": "event"
    },
    {
      "anonymous": false,
      "inputs": [
        {
          "indexed": false,
          "internalType": "uint256",
          "name": "",
          "type": "uint256"
        }
      ],
      "name": "GetMaxHolderNum",
      "type": "event"
    },
    {
      "anonymous": false,
      "inputs": [
        {
          "indexed": false,
          "internalType": "uint256",
          "name": "",
          "type": "uint256"
        }
      ],
      "name": "GetNFTNum",
      "type": "event"
    },
    {
      "anonymous": false,
      "inputs": [
        {
          "indexed": false,
          "internalType": "address[]",
          "name": "",
          "type": "address[]"
        }
      ],
      "name": "GetNTFs",
      "type": "event"
    },
    {
      "anonymous": false,
      "inputs": [
        {
          "indexed": false,
          "internalType": "uint256",
          "name": "",
          "type": "uint256"
        }
      ],
      "name": "GetRand",
      "type": "event"
    },
    {
      "anonymous": false,
      "inputs": [
        {
          "indexed": false,
          "internalType": "string[]",
          "name": "",
          "type": "string[]"
        }
      ],
      "name": "GetTokenId",
      "type": "event"
    },
    {
      "anonymous": false,
      "inputs": [
        {
          "indexed": false,
          "internalType": "address[]",
          "name": "",
          "type": "address[]"
        }
      ],
      "name": "NFTAddressSwapped",
      "type": "event"
    },
    {
      "anonymous": false,
      "inputs": [
        {
          "indexed": false,
          "internalType": "string[]",
          "name": "",
          "type": "string[]"
        }
      ],
      "name": "TokenIdSwapped",
      "type": "event"
    },
    {
      "inputs": [
        {
          "internalType": "uint256",
          "name": "",
          "type": "uint256"
        }
      ],
      "name": "swappedNFTView",
      "outputs": [
        {
          "internalType": "address",
          "name": "",
          "type": "address"
        }
      ],
      "stateMutability": "view",
      "type": "function",
      "constant": true
    },
    {
      "inputs": [
        {
          "internalType": "uint256",
          "name": "",
          "type": "uint256"
        }
      ],
      "name": "swappedTokenIdView",
      "outputs": [
        {
          "internalType": "string",
          "name": "",
          "type": "string"
        }
      ],
      "stateMutability": "view",
      "type": "function",
      "constant": true
    },
    {
      "inputs": [],
      "name": "viewSwappedNFT",
      "outputs": [
        {
          "internalType": "address[]",
          "name": "",
          "type": "address[]"
        }
      ],
      "stateMutability": "view",
      "type": "function",
      "constant": true
    },
    {
      "inputs": [],
      "name": "viewSwappedId",
      "outputs": [
        {
          "internalType": "string[]",
          "name": "",
          "type": "string[]"
        }
      ],
      "stateMutability": "view",
      "type": "function",
      "constant": true
    },
    {
      "inputs": [
        {
          "internalType": "string",
          "name": "s",
          "type": "string"
        }
      ],
      "name": "stringToUint",
      "outputs": [
        {
          "internalType": "uint256",
          "name": "",
          "type": "uint256"
        }
      ],
      "stateMutability": "nonpayable",
      "type": "function"
    },
    {
      "inputs": [
        {
          "internalType": "address[]",
          "name": "holders",
          "type": "address[]"
        },
        {
          "internalType": "address[]",
          "name": "NFTs",
          "type": "address[]"
        },
        {
          "internalType": "string[]",
          "name": "tokenIds",
          "type": "string[]"
        }
      ],
      "name": "operateSwap",
      "outputs": [
        {
          "internalType": "address[]",
          "name": "",
          "type": "address[]"
        },
        {
          "internalType": "string[]",
          "name": "",
          "type": "string[]"
        }
      ],
      "stateMutability": "nonpayable",
      "type": "function"
    }
  ],
  "bytecode": "0x608060405234801561001057600080fd5b506127106000803273ffffffffffffffffffffffffffffffffffffffff1673ffffffffffffffffffffffffffffffffffffffff1681526020019081526020016000208190555061173c806100656000396000f3fe608060405234801561001057600080fd5b50600436106100625760003560e01c8063177c67fb146100675780631bd951551461008557806335cbed70146100b5578063373d1d44146100e5578063754b9eaa14610116578063fcf29c8d14610134575b600080fd5b61006f610164565b60405161007c9190610cb2565b60405180910390f35b61009f600480360381019061009a9190610e2e565b6101f2565b6040516100ac9190610e90565b60405180910390f35b6100cf60048036038101906100ca9190610ed7565b6102ca565b6040516100dc9190610f8c565b60405180910390f35b6100ff60048036038101906100fa9190611183565b610376565b60405161010d929190611336565b60405180910390f35b61011e6106e4565b60405161012b919061136d565b60405180910390f35b61014e60048036038101906101499190610ed7565b6107bd565b60405161015b919061139e565b60405180910390f35b606060018054806020026020016040519081016040528092919081815260200182805480156101e857602002820191906000526020600020905b8160009054906101000a900473ffffffffffffffffffffffffffffffffffffffff1673ffffffffffffffffffffffffffffffffffffffff168152602001906001019080831161019e575b5050505050905090565b6000808290506000805b82518110156102bf57603083828151811061021a576102196113b9565b5b602001015160f81c60f81b60f81c60ff161015801561025d57506039838281518110610249576102486113b9565b5b602001015160f81c60f81b60f81c60ff1611155b156102ac576030838281518110610277576102766113b9565b5b602001015160f81c60f81b60f81c61028f9190611424565b60ff16600a8361029f9190611458565b6102a991906114b2565b91505b80806102b790611508565b9150506101fc565b508092505050919050565b600281815481106102da57600080fd5b9060005260206000200160009150905080546102f59061157f565b80601f01602080910402602001604051908101604052809291908181526020018280546103219061157f565b801561036e5780601f106103435761010080835404028352916020019161036e565b820191906000526020600020905b81548152906001019060200180831161035157829003601f168201915b505050505081565b6060807f6919e7d32488315ea9a4420a5363c28fb9ddc3bb891468cf75e8344941293fae856040516103a89190610cb2565b60405180910390a17f18ccef2bdaafaf2eea13c99239cba0e2ef197b5d3ae6d0526a4d1aa34f5d970f846040516103df9190610cb2565b60405180910390a17f4b2b6b47c02f7460c3f1eb46d38929432aa151c5cf50c46bf01b023ce812031c83604051610416919061136d565b60405180910390a1600085519050600061042f876107fc565b90507f83aff775b3a72f73749b1d5f3c4edd32deeb7fc432e1d731fedef2ed0dc74c7d816040516104609190610e90565b60405180910390a160008267ffffffffffffffff81111561048457610483610d03565b5b6040519080825280602002602001820160405280156104b25781602001602082028036833780820191505090505b50905060008367ffffffffffffffff8111156104d1576104d0610d03565b5b60405190808252806020026020018201604052801561050457816020015b60608152602001906001900390816104ef5790505b50905060005b8481101561063557600085858361052191906114b2565b61052b91906115df565b905060008a8281518110610542576105416113b9565b5b6020026020010151905060008a8381518110610561576105606113b9565b5b602002602001015190506000610576826101f2565b90507f4d744fb1f65490bae651185edbf0c6d955ed6736887ea0df7f6cf12f057bf01382826040516105a9929190611610565b60405180910390a1828786815181106105c5576105c46113b9565b5b602002602001019073ffffffffffffffffffffffffffffffffffffffff16908173ffffffffffffffffffffffffffffffffffffffff168152505081868681518110610613576106126113b9565b5b602002602001018190525050505050808061062d90611508565b91505061050a565b507f7db713b4c9e5b5c020c533be70cd1ecb7c019327cca5fe1453a960325012265581604051610665919061136d565b60405180910390a17fd4b0110a89ffffe1daea7aeb07e4fb6e5b7d9783a76aabd43783a683d8795fa58260405161069c9190610cb2565b60405180910390a181600190805190602001906106ba9291906109d1565b5080600290805190602001906106d1929190610a5b565b5081819550955050505050935093915050565b60606002805480602002602001604051908101604052809291908181526020016000905b828210156107b45783829060005260206000200180546107279061157f565b80601f01602080910402602001604051908101604052809291908181526020018280546107539061157f565b80156107a05780601f10610775576101008083540402835291602001916107a0565b820191906000526020600020905b81548152906001019060200180831161078357829003601f168201915b505050505081526020019060010190610708565b50505050905090565b600181815481106107cd57600080fd5b906000526020600020016000915054906101000a900473ffffffffffffffffffffffffffffffffffffffff1681565b600080825190506000600190506000600190507f09e70100b952b88163f5f205662f95c4b3b3c77b539816f2b74d4f93948de6798360405161083e9190610e90565b60405180910390a17f04997ecb47ec9b8bdb04f0324d430f47b3811a6dea4103483cfe696c5725275a816040516108759190610e90565b60405180910390a16000600190505b83811015610937578560018261089a9190611640565b815181106108ab576108aa6113b9565b5b602002602001015173ffffffffffffffffffffffffffffffffffffffff168682815181106108dc576108db6113b9565b5b602002602001015173ffffffffffffffffffffffffffffffffffffffff160361091f5760018361090c91906114b2565b92508183111561091a578291505b610924565b600192505b808061092f90611508565b915050610884565b506000819050600060018561094c9190611640565b905081811015610991576040517f08c379a0000000000000000000000000000000000000000000000000000000008152600401610988906116e6565b60405180910390fd5b600082600184846109a29190611640565b6109ac91906114b2565b426109b791906115df565b6109c191906114b2565b9050809650505050505050919050565b828054828255906000526020600020908101928215610a4a579160200282015b82811115610a495782518260006101000a81548173ffffffffffffffffffffffffffffffffffffffff021916908373ffffffffffffffffffffffffffffffffffffffff160217905550916020019190600101906109f1565b5b509050610a579190610abb565b5090565b828054828255906000526020600020908101928215610aaa579160200282015b82811115610aa9578251829080519060200190610a99929190610ad8565b5091602001919060010190610a7b565b5b509050610ab79190610b5e565b5090565b5b80821115610ad4576000816000905550600101610abc565b5090565b828054610ae49061157f565b90600052602060002090601f016020900481019282610b065760008555610b4d565b82601f10610b1f57805160ff1916838001178555610b4d565b82800160010185558215610b4d579182015b82811115610b4c578251825591602001919060010190610b31565b5b509050610b5a9190610abb565b5090565b5b80821115610b7e5760008181610b759190610b82565b50600101610b5f565b5090565b508054610b8e9061157f565b6000825580601f10610ba05750610bbf565b601f016020900490600052602060002090810190610bbe9190610abb565b5b50565b600081519050919050565b600082825260208201905092915050565b6000819050602082019050919050565b600073ffffffffffffffffffffffffffffffffffffffff82169050919050565b6000610c1982610bee565b9050919050565b610c2981610c0e565b82525050565b6000610c3b8383610c20565b60208301905092915050565b6000602082019050919050565b6000610c5f82610bc2565b610c698185610bcd565b9350610c7483610bde565b8060005b83811015610ca5578151610c8c8882610c2f565b9750610c9783610c47565b925050600181019050610c78565b5085935050505092915050565b60006020820190508181036000830152610ccc8184610c54565b905092915050565b6000604051905090565b600080fd5b600080fd5b600080fd5b600080fd5b6000601f19601f8301169050919050565b7f4e487b7100000000000000000000000000000000000000000000000000000000600052604160045260246000fd5b610d3b82610cf2565b810181811067ffffffffffffffff82111715610d5a57610d59610d03565b5b80604052505050565b6000610d6d610cd4565b9050610d798282610d32565b919050565b600067ffffffffffffffff821115610d9957610d98610d03565b5b610da282610cf2565b9050602081019050919050565b82818337600083830152505050565b6000610dd1610dcc84610d7e565b610d63565b905082815260208101848484011115610ded57610dec610ced565b5b610df8848285610daf565b509392505050565b600082601f830112610e1557610e14610ce8565b5b8135610e25848260208601610dbe565b91505092915050565b600060208284031215610e4457610e43610cde565b5b600082013567ffffffffffffffff811115610e6257610e61610ce3565b5b610e6e84828501610e00565b91505092915050565b6000819050919050565b610e8a81610e77565b82525050565b6000602082019050610ea56000830184610e81565b92915050565b610eb481610e77565b8114610ebf57600080fd5b50565b600081359050610ed181610eab565b92915050565b600060208284031215610eed57610eec610cde565b5b6000610efb84828501610ec2565b91505092915050565b600081519050919050565b600082825260208201905092915050565b60005b83811015610f3e578082015181840152602081019050610f23565b83811115610f4d576000848401525b50505050565b6000610f5e82610f04565b610f688185610f0f565b9350610f78818560208601610f20565b610f8181610cf2565b840191505092915050565b60006020820190508181036000830152610fa68184610f53565b905092915050565b600067ffffffffffffffff821115610fc957610fc8610d03565b5b602082029050602081019050919050565b600080fd5b610fe881610c0e565b8114610ff357600080fd5b50565b60008135905061100581610fdf565b92915050565b600061101e61101984610fae565b610d63565b9050808382526020820190506020840283018581111561104157611040610fda565b5b835b8181101561106a57806110568882610ff6565b845260208401935050602081019050611043565b5050509392505050565b600082601f83011261108957611088610ce8565b5b813561109984826020860161100b565b91505092915050565b600067ffffffffffffffff8211156110bd576110bc610d03565b5b602082029050602081019050919050565b60006110e16110dc846110a2565b610d63565b9050808382526020820190506020840283018581111561110457611103610fda565b5b835b8181101561114b57803567ffffffffffffffff81111561112957611128610ce8565b5b8086016111368982610e00565b85526020850194505050602081019050611106565b5050509392505050565b600082601f83011261116a57611169610ce8565b5b813561117a8482602086016110ce565b91505092915050565b60008060006060848603121561119c5761119b610cde565b5b600084013567ffffffffffffffff8111156111ba576111b9610ce3565b5b6111c686828701611074565b935050602084013567ffffffffffffffff8111156111e7576111e6610ce3565b5b6111f386828701611074565b925050604084013567ffffffffffffffff81111561121457611213610ce3565b5b61122086828701611155565b9150509250925092565b600081519050919050565b600082825260208201905092915050565b6000819050602082019050919050565b600082825260208201905092915050565b600061127282610f04565b61127c8185611256565b935061128c818560208601610f20565b61129581610cf2565b840191505092915050565b60006112ac8383611267565b905092915050565b6000602082019050919050565b60006112cc8261122a565b6112d68185611235565b9350836020820285016112e885611246565b8060005b85811015611324578484038952815161130585826112a0565b9450611310836112b4565b925060208a019950506001810190506112ec565b50829750879550505050505092915050565b600060408201905081810360008301526113508185610c54565b9050818103602083015261136481846112c1565b90509392505050565b6000602082019050818103600083015261138781846112c1565b905092915050565b61139881610c0e565b82525050565b60006020820190506113b3600083018461138f565b92915050565b7f4e487b7100000000000000000000000000000000000000000000000000000000600052603260045260246000fd5b600060ff82169050919050565b7f4e487b7100000000000000000000000000000000000000000000000000000000600052601160045260246000fd5b600061142f826113e8565b915061143a836113e8565b92508282101561144d5761144c6113f5565b5b828203905092915050565b600061146382610e77565b915061146e83610e77565b9250817fffffffffffffffffffffffffffffffffffffffffffffffffffffffffffffffff04831182151516156114a7576114a66113f5565b5b828202905092915050565b60006114bd82610e77565b91506114c883610e77565b9250827fffffffffffffffffffffffffffffffffffffffffffffffffffffffffffffffff038211156114fd576114fc6113f5565b5b828201905092915050565b600061151382610e77565b91507fffffffffffffffffffffffffffffffffffffffffffffffffffffffffffffffff8203611545576115446113f5565b5b600182019050919050565b7f4e487b7100000000000000000000000000000000000000000000000000000000600052602260045260246000fd5b6000600282049050600182168061159757607f821691505b6020821081036115aa576115a9611550565b5b50919050565b7f4e487b7100000000000000000000000000000000000000000000000000000000600052601260045260246000fd5b60006115ea82610e77565b91506115f583610e77565b925082611605576116046115b0565b5b828206905092915050565b6000604082019050818103600083015261162a8185610f53565b90506116396020830184610e81565b9392505050565b600061164b82610e77565b915061165683610e77565b925082821015611669576116686113f5565b5b828203905092915050565b7f3131312062616420726571756573743a206f6e65206d656d62657220686f6c6460008201527f20746f6f206d616e790000000000000000000000000000000000000000000000602082015250565b60006116d0602983610f0f565b91506116db82611674565b604082019050919050565b600060208201905081810360008301526116ff816116c3565b905091905056fea2646970667358221220b529373459e68020c6043a099ae500384793f2620bb32a3166595e32b1427daa64736f6c634300080d0033",
  "immutableReferences": {},
  "source": "// SPDX-License-Identifier: MIT\n// Tells the Solidity compiler to compile only from v0.8.13 to v0.9.0\npragma solidity ^0.8.13;\n\nimport \"@openzeppelin/contracts/token/ERC721/IERC721.sol\";\n\n// This is just a simple example of a coin-like contract.\n// It is not ERC20 compatible and cannot be expected to talk to other\n// coin/token contracts.\n\ncontract MetaCoin {\n\tmapping (address => uint) balances;\n\n\tevent GetHolders(address[]);\n\tevent GetNTFs(address[]);\n\tevent GetTokenId(string[]);\n\n\tevent GetNFTNum(uint256);\n\n\tevent GetMaxHolderNum(uint256);\n\tevent GetRand(uint256);\n\tevent NFTAddressSwapped(address[]);\n\tevent TokenIdSwapped(string[]);\n\tevent ConvertTokenId(string, uint256);\n\n\tstruct SingleUserInput {\n\t\taddress owner;\n\t\taddress[] NFTs;\n\t}\n\n\taddress[] public swappedNFTView;\n\tstring[] public swappedTokenIdView;\n\t\n\tconstructor() {\n\t\tbalances[tx.origin] = 10000;\n\t}\n    \n\tfunction viewSwappedNFT() public view returns(address[] memory) {\n\t\treturn swappedNFTView;\n\t}\n\t\n\tfunction viewSwappedId() public view returns(string[] memory){\n\t\treturn swappedTokenIdView; \n\t}\n\n\tfunction getNumbers(address[] memory holders) internal returns(uint256){\n\t\tuint256 numTotalNFT = holders.length;\n\t\tuint256 curCount = 1;\n\t\tuint256 maxHolderNum = 1;\n\t\n\t\temit GetNFTNum(numTotalNFT);\n\t\temit GetMaxHolderNum(maxHolderNum);\n\t\t\n\t\tfor (uint i = 1; i < numTotalNFT; i++){\n\t\t\tif (holders[i] == holders[i-1]){\n\t\t\t\tcurCount += 1;\n\t\t\t\tif (curCount > maxHolderNum){\n\t\t\t\t\tmaxHolderNum = curCount;\n\t\t\t\t}\n\t\t\t} else {\n\t\t\t\tcurCount = 1;\n\t\t\t}\n\t\t}\n\t\tuint256 offsetMin = maxHolderNum; // inclusive\n\t\tuint256 offsetMax = numTotalNFT - 1; // inclusive\n\t\trequire(offsetMax >= offsetMin, '111 bad request: one member hold too many');\n\n\t\tuint256 psuedoRand = (block.timestamp) % (offsetMax - offsetMin + 1) + offsetMin;\n\t\treturn psuedoRand;\n\t}\n\n\tfunction stringToUint(string memory s) public returns (uint) {\n\t\tbytes memory b = bytes(s);\n\t\tuint result = 0;\n\t\tfor (uint i = 0; i < b.length; i++) { \n\t\t\tif (uint8(b[i]) >= 48 && uint8(b[i]) <= 57) {\n\t\t\t\tresult = result * 10 + (uint8(b[i]) - 48); // bytes and int are not compatible with the operator -.\n\t\t\t}\n\t\t}\n\t\treturn result; \n\t}\n\t// Not needed. Should be guaranteed by the frontend that participants are legit owner, and request approval from our contract.\n\n\t// function checkOwner(address[] memory holders, address[] memory NFTs, string[] memory tokenIds) internal {\n\t// \tfor (uint256 i = 0; i < holders.length; i++){\n\t// \t\tIERC721 nft = IERC721(NFTs[i]);\n  \t//       \taddress owner = nft.ownerOf(uint256(stringToUint(tokenIds[i])));\n    //     \trequire(holders[i] == owner, '222 holder not owner of the NFT'); \n\t// \t}\n\t// }\n\t\n\tfunction operateSwap(address[] memory holders, address[] memory NFTs, string[] memory tokenIds) public returns(address[] memory, string[] memory) {\n\t\temit GetHolders(holders);\n\t\temit GetNTFs(NFTs);\n\t\temit GetTokenId(tokenIds);\n\n\t\tuint256 numTotalNFT = holders.length;\n\t\tuint256 psuedoRand = getNumbers(holders);\n\t\t// eventually need the list of NFTs, the list of holders, and the list of repeated holders (their # of NFTs, at the right position with NFT list)\n\t\t// output of the algorithm will be another list of NFTs (after move the amount of offset) \n\t\t// Would be the best choice to use array as input & output - we don't need to convert back and forth from struct or map\n\t\temit GetRand(psuedoRand);\n\n\t\taddress[] memory swappedNFTs = new address[](numTotalNFT);\n\t\tstring[] memory swappedTokenIds = new string[](numTotalNFT);\t\n\t\tfor (uint i = 0; i < numTotalNFT; i++) {\n\t\t\tuint256 offsetIndex = (i + psuedoRand)%(numTotalNFT);\n\t\t\taddress targetNFT = NFTs[offsetIndex];\n\t\t\t// address targetHolder = holders[offsetIndex];\n\t\t\tstring memory targetTokenId = tokenIds[offsetIndex];\n\t\t\t\n\t\t\tuint256 targetIntTokenId = stringToUint(targetTokenId);\n\t\t\temit ConvertTokenId(targetTokenId, targetIntTokenId);\n\t\t\t// address currentHolder = holders[i];\n\t\t\tswappedNFTs[i] = targetNFT;\n\t\t\tswappedTokenIds[i] = targetTokenId; \n\t\t\t// Need to do the real swap logic, assign the pointed NFT to the current address\n\t\t\t// IERC721(targetNFT).safeTransferFrom(holders[offsetIndex], holders[i], targetTokenId);\n\t\t}\n\t\temit TokenIdSwapped(swappedTokenIds);\n\t\temit NFTAddressSwapped(swappedNFTs);\n\n\t\tswappedNFTView = swappedNFTs;\n\t\tswappedTokenIdView = swappedTokenIds;\n\t\t\t\n\t\treturn (swappedNFTs, swappedTokenIds);\n\t}\n\n}\n\n",
  "sourcePath": "/Users/jing/white-elefun/backend/contracts/MetaCoin.sol",
  "compiler": {
    "name": "solc",
    "version": "0.8.13+commit.abaa5c0e.Emscripten.clang"
  },
  "schemaVersion": "3.4.10",
  "updatedAt": "2022-11-06T06:10:39.657Z",
  "networkType": "ethereum",
  "devdoc": {
    "kind": "dev",
    "methods": {},
    "version": 1
  },
  "userdoc": {
    "kind": "user",
    "methods": {},
    "version": 1
  }
}