{
  "contractName": "MetaCoin",
  "abi": [
    {
      "inputs": [],
      "stateMutability": "nonpayable",
      "type": "constructor"
    },
    {
      "anonymous": false,
      "inputs": [
        {
          "indexed": false,
          "internalType": "address[]",
          "name": "",
          "type": "address[]"
        }
      ],
      "name": "GetHolders",
      "type": "event"
    },
    {
      "anonymous": false,
      "inputs": [
        {
          "indexed": false,
          "internalType": "uint256",
          "name": "",
          "type": "uint256"
        }
      ],
      "name": "GetMaxHolderNum",
      "type": "event"
    },
    {
      "anonymous": false,
      "inputs": [
        {
          "indexed": false,
          "internalType": "uint256",
          "name": "",
          "type": "uint256"
        }
      ],
      "name": "GetNFTNum",
      "type": "event"
    },
    {
      "anonymous": false,
      "inputs": [
        {
          "indexed": false,
          "internalType": "address[]",
          "name": "",
          "type": "address[]"
        }
      ],
      "name": "GetNTFs",
      "type": "event"
    },
    {
      "anonymous": false,
      "inputs": [
        {
          "indexed": false,
          "internalType": "uint256",
          "name": "",
          "type": "uint256"
        }
      ],
      "name": "GetRand",
      "type": "event"
    },
    {
      "anonymous": false,
      "inputs": [
        {
          "indexed": false,
          "internalType": "uint256[]",
          "name": "",
          "type": "uint256[]"
        }
      ],
      "name": "GetTokenId",
      "type": "event"
    },
    {
      "anonymous": false,
      "inputs": [
        {
          "indexed": false,
          "internalType": "address[]",
          "name": "",
          "type": "address[]"
        }
      ],
      "name": "NFTAddressSwapped",
      "type": "event"
    },
    {
      "anonymous": false,
      "inputs": [
        {
          "indexed": false,
          "internalType": "uint256[]",
          "name": "",
          "type": "uint256[]"
        }
      ],
      "name": "TokenIdSwapped",
      "type": "event"
    },
    {
      "inputs": [
        {
          "internalType": "uint256",
          "name": "",
          "type": "uint256"
        }
      ],
      "name": "swappedNFTView",
      "outputs": [
        {
          "internalType": "address",
          "name": "",
          "type": "address"
        }
      ],
      "stateMutability": "view",
      "type": "function",
      "constant": true
    },
    {
      "inputs": [
        {
          "internalType": "uint256",
          "name": "",
          "type": "uint256"
        }
      ],
      "name": "swappedTokenIdView",
      "outputs": [
        {
          "internalType": "uint256",
          "name": "",
          "type": "uint256"
        }
      ],
      "stateMutability": "view",
      "type": "function",
      "constant": true
    },
    {
      "inputs": [],
      "name": "viewSwappedNFT",
      "outputs": [
        {
          "internalType": "address[]",
          "name": "",
          "type": "address[]"
        }
      ],
      "stateMutability": "view",
      "type": "function",
      "constant": true
    },
    {
      "inputs": [],
      "name": "viewSwappedId",
      "outputs": [
        {
          "internalType": "uint256[]",
          "name": "",
          "type": "uint256[]"
        }
      ],
      "stateMutability": "view",
      "type": "function",
      "constant": true
    },
    {
      "inputs": [
        {
          "internalType": "address[]",
          "name": "holders",
          "type": "address[]"
        },
        {
          "internalType": "address[]",
          "name": "NFTs",
          "type": "address[]"
        },
        {
          "internalType": "uint256[]",
          "name": "tokenIds",
          "type": "uint256[]"
        }
      ],
      "name": "operateSwap",
      "outputs": [
        {
          "internalType": "address[]",
          "name": "",
          "type": "address[]"
        },
        {
          "internalType": "uint256[]",
          "name": "",
          "type": "uint256[]"
        }
      ],
      "stateMutability": "nonpayable",
      "type": "function"
    }
  ],
  "bytecode": "0x608060405234801561001057600080fd5b506127106000803273ffffffffffffffffffffffffffffffffffffffff1673ffffffffffffffffffffffffffffffffffffffff16815260200190815260200160002081905550611066806100656000396000f3fe608060405234801561001057600080fd5b50600436106100575760003560e01c8063177c67fb1461005c57806335cbed701461007a578063754b9eaa146100aa57806387c027d6146100c8578063fcf29c8d146100f9575b600080fd5b610064610129565b6040516100719190610930565b60405180910390f35b610094600480360381019061008f919061099c565b6101b7565b6040516100a191906109d8565b60405180910390f35b6100b26101db565b6040516100bf9190610ab1565b60405180910390f35b6100e260048036038101906100dd9190610d1b565b610233565b6040516100f0929190610dc2565b60405180910390f35b610113600480360381019061010e919061099c565b61070d565b6040516101209190610e08565b60405180910390f35b606060018054806020026020016040519081016040528092919081815260200182805480156101ad57602002820191906000526020600020905b8160009054906101000a900473ffffffffffffffffffffffffffffffffffffffff1673ffffffffffffffffffffffffffffffffffffffff1681526020019060010190808311610163575b5050505050905090565b600281815481106101c757600080fd5b906000526020600020016000915090505481565b6060600280548060200260200160405190810160405280929190818152602001828054801561022957602002820191906000526020600020905b815481526020019060010190808311610215575b5050505050905090565b6060807f6919e7d32488315ea9a4420a5363c28fb9ddc3bb891468cf75e8344941293fae856040516102659190610930565b60405180910390a17f18ccef2bdaafaf2eea13c99239cba0e2ef197b5d3ae6d0526a4d1aa34f5d970f8460405161029c9190610930565b60405180910390a17fdc5762343b15368e568e11dd7b9c12551d66266db360d90e72404807babaf497836040516102d39190610ab1565b60405180910390a16000855190506000600190506000600190506000600190505b838110156103a7578860018261030a9190610e52565b8151811061031b5761031a610e86565b5b602002602001015173ffffffffffffffffffffffffffffffffffffffff1689828151811061034c5761034b610e86565b5b602002602001015173ffffffffffffffffffffffffffffffffffffffff160361038f5760018361037c9190610eb5565b92508183111561038a578291505b610394565b600192505b808061039f90610f0b565b9150506102f4565b507f09e70100b952b88163f5f205662f95c4b3b3c77b539816f2b74d4f93948de679836040516103d791906109d8565b60405180910390a17f04997ecb47ec9b8bdb04f0324d430f47b3811a6dea4103483cfe696c5725275a8160405161040e91906109d8565b60405180910390a16000819050600060018561042a9190610e52565b90508181101561046f576040517f08c379a000000000000000000000000000000000000000000000000000000000815260040161046690610fb0565b60405180910390fd5b600082600184846104809190610e52565b61048a9190610eb5565b426104959190610fff565b61049f9190610eb5565b90507f83aff775b3a72f73749b1d5f3c4edd32deeb7fc432e1d731fedef2ed0dc74c7d816040516104d091906109d8565b60405180910390a160008667ffffffffffffffff8111156104f4576104f3610ae9565b5b6040519080825280602002602001820160405280156105225781602001602082028036833780820191505090505b50905060008767ffffffffffffffff81111561054157610540610ae9565b5b60405190808252806020026020018201604052801561056f5781602001602082028036833780820191505090505b50905060005b8881101561065a57600089858361058c9190610eb5565b6105969190610fff565b905060008e82815181106105ad576105ac610e86565b5b6020026020010151905060008e83815181106105cc576105cb610e86565b5b60200260200101519050818685815181106105ea576105e9610e86565b5b602002602001019073ffffffffffffffffffffffffffffffffffffffff16908173ffffffffffffffffffffffffffffffffffffffff16815250508085858151811061063857610637610e86565b5b602002602001018181525050505050808061065290610f0b565b915050610575565b507fdb1c3924f9c0b19e2c94bfdd74dc1a4a887f88466d82d7519bec3b35b1b313ac8160405161068a9190610ab1565b60405180910390a17fd4b0110a89ffffe1daea7aeb07e4fb6e5b7d9783a76aabd43783a683d8795fa5826040516106c19190610930565b60405180910390a181600190805190602001906106df92919061074c565b5080600290805190602001906106f69291906107d6565b508181995099505050505050505050935093915050565b6001818154811061071d57600080fd5b906000526020600020016000915054906101000a900473ffffffffffffffffffffffffffffffffffffffff1681565b8280548282559060005260206000209081019282156107c5579160200282015b828111156107c45782518260006101000a81548173ffffffffffffffffffffffffffffffffffffffff021916908373ffffffffffffffffffffffffffffffffffffffff1602179055509160200191906001019061076c565b5b5090506107d29190610823565b5090565b828054828255906000526020600020908101928215610812579160200282015b828111156108115782518255916020019190600101906107f6565b5b50905061081f9190610823565b5090565b5b8082111561083c576000816000905550600101610824565b5090565b600081519050919050565b600082825260208201905092915050565b6000819050602082019050919050565b600073ffffffffffffffffffffffffffffffffffffffff82169050919050565b60006108978261086c565b9050919050565b6108a78161088c565b82525050565b60006108b9838361089e565b60208301905092915050565b6000602082019050919050565b60006108dd82610840565b6108e7818561084b565b93506108f28361085c565b8060005b8381101561092357815161090a88826108ad565b9750610915836108c5565b9250506001810190506108f6565b5085935050505092915050565b6000602082019050818103600083015261094a81846108d2565b905092915050565b6000604051905090565b600080fd5b600080fd5b6000819050919050565b61097981610966565b811461098457600080fd5b50565b60008135905061099681610970565b92915050565b6000602082840312156109b2576109b161095c565b5b60006109c084828501610987565b91505092915050565b6109d281610966565b82525050565b60006020820190506109ed60008301846109c9565b92915050565b600081519050919050565b600082825260208201905092915050565b6000819050602082019050919050565b610a2881610966565b82525050565b6000610a3a8383610a1f565b60208301905092915050565b6000602082019050919050565b6000610a5e826109f3565b610a6881856109fe565b9350610a7383610a0f565b8060005b83811015610aa4578151610a8b8882610a2e565b9750610a9683610a46565b925050600181019050610a77565b5085935050505092915050565b60006020820190508181036000830152610acb8184610a53565b905092915050565b600080fd5b6000601f19601f8301169050919050565b7f4e487b7100000000000000000000000000000000000000000000000000000000600052604160045260246000fd5b610b2182610ad8565b810181811067ffffffffffffffff82111715610b4057610b3f610ae9565b5b80604052505050565b6000610b53610952565b9050610b5f8282610b18565b919050565b600067ffffffffffffffff821115610b7f57610b7e610ae9565b5b602082029050602081019050919050565b600080fd5b610b9e8161088c565b8114610ba957600080fd5b50565b600081359050610bbb81610b95565b92915050565b6000610bd4610bcf84610b64565b610b49565b90508083825260208201905060208402830185811115610bf757610bf6610b90565b5b835b81811015610c205780610c0c8882610bac565b845260208401935050602081019050610bf9565b5050509392505050565b600082601f830112610c3f57610c3e610ad3565b5b8135610c4f848260208601610bc1565b91505092915050565b600067ffffffffffffffff821115610c7357610c72610ae9565b5b602082029050602081019050919050565b6000610c97610c9284610c58565b610b49565b90508083825260208201905060208402830185811115610cba57610cb9610b90565b5b835b81811015610ce35780610ccf8882610987565b845260208401935050602081019050610cbc565b5050509392505050565b600082601f830112610d0257610d01610ad3565b5b8135610d12848260208601610c84565b91505092915050565b600080600060608486031215610d3457610d3361095c565b5b600084013567ffffffffffffffff811115610d5257610d51610961565b5b610d5e86828701610c2a565b935050602084013567ffffffffffffffff811115610d7f57610d7e610961565b5b610d8b86828701610c2a565b925050604084013567ffffffffffffffff811115610dac57610dab610961565b5b610db886828701610ced565b9150509250925092565b60006040820190508181036000830152610ddc81856108d2565b90508181036020830152610df08184610a53565b90509392505050565b610e028161088c565b82525050565b6000602082019050610e1d6000830184610df9565b92915050565b7f4e487b7100000000000000000000000000000000000000000000000000000000600052601160045260246000fd5b6000610e5d82610966565b9150610e6883610966565b925082821015610e7b57610e7a610e23565b5b828203905092915050565b7f4e487b7100000000000000000000000000000000000000000000000000000000600052603260045260246000fd5b6000610ec082610966565b9150610ecb83610966565b9250827fffffffffffffffffffffffffffffffffffffffffffffffffffffffffffffffff03821115610f0057610eff610e23565b5b828201905092915050565b6000610f1682610966565b91507fffffffffffffffffffffffffffffffffffffffffffffffffffffffffffffffff8203610f4857610f47610e23565b5b600182019050919050565b600082825260208201905092915050565b7f3131312062616420726571756573740000000000000000000000000000000000600082015250565b6000610f9a600f83610f53565b9150610fa582610f64565b602082019050919050565b60006020820190508181036000830152610fc981610f8d565b9050919050565b7f4e487b7100000000000000000000000000000000000000000000000000000000600052601260045260246000fd5b600061100a82610966565b915061101583610966565b92508261102557611024610fd0565b5b82820690509291505056fea26469706673582212200e98443f51a8aa332df3a90e0bdf300574281bcba049a04838ef69c4f69a6bb064736f6c634300080d0033",
  "immutableReferences": {},
  "source": "// SPDX-License-Identifier: MIT\n// Tells the Solidity compiler to compile only from v0.8.13 to v0.9.0\npragma solidity ^0.8.13;\n\nimport \"./ConvertLib.sol\";\n\n// This is just a simple example of a coin-like contract.\n// It is not ERC20 compatible and cannot be expected to talk to other\n// coin/token contracts.\n\ncontract MetaCoin {\n\tmapping (address => uint) balances;\n\n\tevent GetHolders(address[]);\n\tevent GetNTFs(address[]);\n\tevent GetTokenId(uint256[]);\n\n\tevent GetNFTNum(uint256);\n\n\tevent GetMaxHolderNum(uint256);\n\tevent GetRand(uint256);\n\tevent NFTAddressSwapped(address[]);\n\tevent TokenIdSwapped(uint256[]);\n\n\tstruct SingleUserInput {\n\t\taddress owner;\n\t\taddress[] NFTs;\n\t}\n\n\taddress[] public swappedNFTView;\n\tuint256[] public swappedTokenIdView;\n\t\n\tconstructor() {\n\t\tbalances[tx.origin] = 10000;\n\t}\n\n\tfunction viewSwappedNFT() public view returns(address[] memory) {\n\t\treturn swappedNFTView;\n\t}\n\t\n\tfunction viewSwappedId() public view returns(uint[] memory){\n\t\treturn swappedTokenIdView; \n\t}\n\n\tfunction operateSwap(address[] memory holders, address[] memory NFTs, uint256[] memory tokenIds) public returns(address[] memory, uint256[] memory) {\n\t\temit GetHolders(holders);\n\t\temit GetNTFs(NFTs);\n\t\temit GetTokenId(tokenIds);\n\n\t\tuint256 numTotalNFT = holders.length;\n\t\tuint256 curCount = 1;\n\t\tuint256 maxHolderNum = 1;\n\t\tfor (uint i = 1; i < numTotalNFT; i++){\n\t\t\tif (holders[i] == holders[i-1]){\n\t\t\t\tcurCount += 1;\n\t\t\t\tif (curCount > maxHolderNum){\n\t\t\t\t\tmaxHolderNum = curCount;\n\t\t\t\t}\n\t\t\t} else {\n\t\t\t\tcurCount = 1;\n\t\t\t}\n\t\t}\n\t\temit GetNFTNum(numTotalNFT);\n\t\temit GetMaxHolderNum(maxHolderNum);\n\t\t\n\t\tuint256 offsetMin = maxHolderNum; // inclusive\n\t\tuint256 offsetMax = numTotalNFT - 1; // inclusive\n\t\trequire(offsetMax >= offsetMin, '111 bad request');\n\n\t\tuint256 psuedoRand = (block.timestamp) % (offsetMax - offsetMin + 1) + offsetMin;\n\t\t// eventually need the list of NFTs, the list of holders, and the list of repeated holders (their # of NFTs, at the right position with NFT list)\n\t\t// output of the algorithm will be another list of NFTs (after move the amount of offset) \n\t\t// Would be the best choice to use array as input & output - we don't need to convert back and forth from struct or map\n\t\temit GetRand(psuedoRand);\n\n\t\taddress[] memory swappedNFTs = new address[](numTotalNFT);\n\t\tuint256[] memory swappedTokenIds = new uint256[](numTotalNFT);\t\n\t\tfor (uint i = 0; i < numTotalNFT; i++) {\n\t\t\tuint256 offsetIndex = (i + psuedoRand)%numTotalNFT;\n\t\t\taddress targetNFT = NFTs[offsetIndex];\n\t\t\t// address targetHolder = holders[offsetIndex];\n\t\t\tuint256 targetTokenId = tokenIds[offsetIndex];\n\t\t\t// address currentHolder = holders[i];\n\t\t\tswappedNFTs[i] = targetNFT;\n\t\t\tswappedTokenIds[i] = targetTokenId; \n\t\t\t// Need to do the real swap logic, assign the pointed NFT to the current address\n\t\t\t// IERC721(targetNFT).safeTransferFrom(currentHolder, targetHolder, tokenId)\n\t\t}\n\t\temit TokenIdSwapped(swappedTokenIds);\n\t\temit NFTAddressSwapped(swappedNFTs);\n\n\t\tswappedNFTView = swappedNFTs;\n\t\tswappedTokenIdView = swappedTokenIds;\n\t\t\t\n\t\treturn (swappedNFTs, swappedTokenIds);\n\t}\n\n}\n",
  "sourcePath": "/Users/jing/white-elefun/backend/contracts/MetaCoin.sol",
  "compiler": {
    "name": "solc",
    "version": "0.8.13+commit.abaa5c0e.Emscripten.clang"
  },
  "schemaVersion": "3.4.10",
  "updatedAt": "2022-11-06T00:45:40.913Z",
  "networkType": "ethereum",
  "devdoc": {
    "kind": "dev",
    "methods": {},
    "version": 1
  },
  "userdoc": {
    "kind": "user",
    "methods": {},
    "version": 1
  }
}