{
  "contractName": "RandomNumberConsumerV2",
  "abi": [
    {
      "inputs": [
        {
          "internalType": "uint64",
          "name": "subscriptionId",
          "type": "uint64"
        },
        {
          "internalType": "address",
          "name": "vrfCoordinator",
          "type": "address"
        },
        {
          "internalType": "bytes32",
          "name": "keyHash",
          "type": "bytes32"
        }
      ],
      "stateMutability": "nonpayable",
      "type": "constructor"
    },
    {
      "inputs": [
        {
          "internalType": "address",
          "name": "have",
          "type": "address"
        },
        {
          "internalType": "address",
          "name": "want",
          "type": "address"
        }
      ],
      "name": "OnlyCoordinatorCanFulfill",
      "type": "error"
    },
    {
      "anonymous": false,
      "inputs": [
        {
          "indexed": false,
          "internalType": "uint256[]",
          "name": "randomWords",
          "type": "uint256[]"
        }
      ],
      "name": "ReturnedRandomness",
      "type": "event"
    },
    {
      "anonymous": false,
      "inputs": [
        {
          "indexed": false,
          "internalType": "uint256",
          "name": "rangedWord",
          "type": "uint256"
        }
      ],
      "name": "ReturnedRandomnessRanged",
      "type": "event"
    },
    {
      "inputs": [],
      "name": "numGenerated",
      "outputs": [
        {
          "internalType": "uint256",
          "name": "",
          "type": "uint256"
        }
      ],
      "stateMutability": "view",
      "type": "function"
    },
    {
      "inputs": [],
      "name": "numRanged",
      "outputs": [
        {
          "internalType": "uint256",
          "name": "",
          "type": "uint256"
        }
      ],
      "stateMutability": "view",
      "type": "function"
    },
    {
      "inputs": [
        {
          "internalType": "uint256",
          "name": "requestId",
          "type": "uint256"
        },
        {
          "internalType": "uint256[]",
          "name": "randomWords",
          "type": "uint256[]"
        }
      ],
      "name": "rawFulfillRandomWords",
      "outputs": [],
      "stateMutability": "nonpayable",
      "type": "function"
    },
    {
      "inputs": [
        {
          "internalType": "uint256",
          "name": "",
          "type": "uint256"
        }
      ],
      "name": "s_randomWords",
      "outputs": [
        {
          "internalType": "uint256",
          "name": "",
          "type": "uint256"
        }
      ],
      "stateMutability": "view",
      "type": "function"
    },
    {
      "inputs": [],
      "name": "s_requestId",
      "outputs": [
        {
          "internalType": "uint256",
          "name": "",
          "type": "uint256"
        }
      ],
      "stateMutability": "view",
      "type": "function"
    },
    {
      "inputs": [],
      "name": "requestRandomWords",
      "outputs": [],
      "stateMutability": "nonpayable",
      "type": "function"
    },
    {
      "inputs": [],
      "name": "getRandomWords",
      "outputs": [],
      "stateMutability": "nonpayable",
      "type": "function"
    },
    {
      "inputs": [],
      "name": "getSubscriptionId",
      "outputs": [
        {
          "internalType": "uint64",
          "name": "",
          "type": "uint64"
        }
      ],
      "stateMutability": "view",
      "type": "function"
    }
  ],
  "bytecode": "0x610100604052601460035560646004553480156200001c57600080fd5b5060405162000dbf38038062000dbf833981810160405281019062000042919062000204565b818073ffffffffffffffffffffffffffffffffffffffff1660808173ffffffffffffffffffffffffffffffffffffffff1681525050508173ffffffffffffffffffffffffffffffffffffffff1660a08173ffffffffffffffffffffffffffffffffffffffff16815250508060e0818152505033600260006101000a81548173ffffffffffffffffffffffffffffffffffffffff021916908373ffffffffffffffffffffffffffffffffffffffff1602179055508267ffffffffffffffff1660c08167ffffffffffffffff168152505050505062000260565b600080fd5b600067ffffffffffffffff82169050919050565b6200013e816200011f565b81146200014a57600080fd5b50565b6000815190506200015e8162000133565b92915050565b600073ffffffffffffffffffffffffffffffffffffffff82169050919050565b6000620001918262000164565b9050919050565b620001a38162000184565b8114620001af57600080fd5b50565b600081519050620001c38162000198565b92915050565b6000819050919050565b620001de81620001c9565b8114620001ea57600080fd5b50565b600081519050620001fe81620001d3565b92915050565b60008060006060848603121562000220576200021f6200011a565b5b600062000230868287016200014d565b93505060206200024386828701620001b2565b92505060406200025686828701620001ed565b9150509250925092565b60805160a05160c05160e051610b17620002a860003960006102a101526000818161023f01526102c20152600061026501526000818161016d01526101c10152610b176000f3fe608060405234801561001057600080fd5b50600436106100885760003560e01c8063de3d9fb71161005b578063de3d9fb7146100ef578063e0c862891461010d578063e89e106a14610117578063f6eaffc81461013557610088565b806304ae692d1461008d5780631fe543e3146100ab578063743a606c146100c7578063ce10b1fb146100e5575b600080fd5b610095610165565b6040516100a291906104ea565b60405180910390f35b6100c560048036038101906100c0919061069e565b61016b565b005b6100cf61022b565b6040516100dc91906104ea565b60405180910390f35b6100ed610231565b005b6100f761023b565b604051610104919061071d565b60405180910390f35b610115610263565b005b61011f610354565b60405161012c91906104ea565b60405180910390f35b61014f600480360381019061014a9190610738565b61035a565b60405161015c91906104ea565b60405180910390f35b60065481565b7f000000000000000000000000000000000000000000000000000000000000000073ffffffffffffffffffffffffffffffffffffffff163373ffffffffffffffffffffffffffffffffffffffff161461021d57337f00000000000000000000000000000000000000000000000000000000000000006040517f1cf993f40000000000000000000000000000000000000000000000000000000081526004016102149291906107a6565b60405180910390fd5b610227828261037e565b5050565b60055481565b610239610263565b565b60007f0000000000000000000000000000000000000000000000000000000000000000905090565b7f000000000000000000000000000000000000000000000000000000000000000073ffffffffffffffffffffffffffffffffffffffff16635d3b1d307f00000000000000000000000000000000000000000000000000000000000000007f00000000000000000000000000000000000000000000000000000000000000006003620186a060026040518663ffffffff1660e01b8152600401610309959493929190610824565b6020604051808303816000875af1158015610328573d6000803e3d6000fd5b505050506040513d601f19601f8201168201806040525081019061034c919061088c565b600181905550565b60015481565b6000818154811061036a57600080fd5b906000526020600020016000915090505481565b8060009080519060200190610394929190610467565b50806000815181106103a9576103a86108b9565b5b602002602001015160058190555060035460016003546004546103cc9190610917565b6103d6919061094b565b6005546103e391906109d0565b6103ed919061094b565b6006819055507fefb16d61046900da527008568620fb9f8420e2f5ed4de3bfbded5035c9362b0e816040516104229190610abf565b60405180910390a17fcebce22da3d904ef63aed3d6ae640b2d60788dac09c00fd03a373a6fc70afd5e60065460405161045b91906104ea565b60405180910390a15050565b8280548282559060005260206000209081019282156104a3579160200282015b828111156104a2578251825591602001919060010190610487565b5b5090506104b091906104b4565b5090565b5b808211156104cd5760008160009055506001016104b5565b5090565b6000819050919050565b6104e4816104d1565b82525050565b60006020820190506104ff60008301846104db565b92915050565b6000604051905090565b600080fd5b600080fd5b610522816104d1565b811461052d57600080fd5b50565b60008135905061053f81610519565b92915050565b600080fd5b6000601f19601f8301169050919050565b7f4e487b7100000000000000000000000000000000000000000000000000000000600052604160045260246000fd5b6105938261054a565b810181811067ffffffffffffffff821117156105b2576105b161055b565b5b80604052505050565b60006105c5610505565b90506105d1828261058a565b919050565b600067ffffffffffffffff8211156105f1576105f061055b565b5b602082029050602081019050919050565b600080fd5b600061061a610615846105d6565b6105bb565b9050808382526020820190506020840283018581111561063d5761063c610602565b5b835b8181101561066657806106528882610530565b84526020840193505060208101905061063f565b5050509392505050565b600082601f83011261068557610684610545565b5b8135610695848260208601610607565b91505092915050565b600080604083850312156106b5576106b461050f565b5b60006106c385828601610530565b925050602083013567ffffffffffffffff8111156106e4576106e3610514565b5b6106f085828601610670565b9150509250929050565b600067ffffffffffffffff82169050919050565b610717816106fa565b82525050565b6000602082019050610732600083018461070e565b92915050565b60006020828403121561074e5761074d61050f565b5b600061075c84828501610530565b91505092915050565b600073ffffffffffffffffffffffffffffffffffffffff82169050919050565b600061079082610765565b9050919050565b6107a081610785565b82525050565b60006040820190506107bb6000830185610797565b6107c86020830184610797565b9392505050565b6000819050919050565b6107e2816107cf565b82525050565b600061ffff82169050919050565b6107ff816107e8565b82525050565b600063ffffffff82169050919050565b61081e81610805565b82525050565b600060a08201905061083960008301886107d9565b610846602083018761070e565b61085360408301866107f6565b6108606060830185610815565b61086d6080830184610815565b9695505050505050565b60008151905061088681610519565b92915050565b6000602082840312156108a2576108a161050f565b5b60006108b084828501610877565b91505092915050565b7f4e487b7100000000000000000000000000000000000000000000000000000000600052603260045260246000fd5b7f4e487b7100000000000000000000000000000000000000000000000000000000600052601160045260246000fd5b6000610922826104d1565b915061092d836104d1565b9250828210156109405761093f6108e8565b5b828203905092915050565b6000610956826104d1565b9150610961836104d1565b9250827fffffffffffffffffffffffffffffffffffffffffffffffffffffffffffffffff03821115610996576109956108e8565b5b828201905092915050565b7f4e487b7100000000000000000000000000000000000000000000000000000000600052601260045260246000fd5b60006109db826104d1565b91506109e6836104d1565b9250826109f6576109f56109a1565b5b828206905092915050565b600081519050919050565b600082825260208201905092915050565b6000819050602082019050919050565b610a36816104d1565b82525050565b6000610a488383610a2d565b60208301905092915050565b6000602082019050919050565b6000610a6c82610a01565b610a768185610a0c565b9350610a8183610a1d565b8060005b83811015610ab2578151610a998882610a3c565b9750610aa483610a54565b925050600181019050610a85565b5085935050505092915050565b60006020820190508181036000830152610ad98184610a61565b90509291505056fea2646970667358221220bb8bfa83006b577f74ab85134178c31190f265178c6733f06fccf7d1f3850c1164736f6c634300080d0033",
  "immutableReferences": {
    "10": [
      {
        "length": 32,
        "start": 365
      },
      {
        "length": 32,
        "start": 449
      }
    ],
    "163": [
      {
        "length": 32,
        "start": 613
      }
    ],
    "165": [
      {
        "length": 32,
        "start": 575
      },
      {
        "length": 32,
        "start": 706
      }
    ],
    "167": [
      {
        "length": 32,
        "start": 673
      }
    ]
  },
  "source": "// SPDX-License-Identifier: MIT\n// An example of a consumer contract that relies on a subscription for funding.\npragma solidity ^0.8.7;\n\nimport \"@chainlink/contracts/src/v0.8/interfaces/VRFCoordinatorV2Interface.sol\";\nimport \"@chainlink/contracts/src/v0.8/VRFConsumerBaseV2.sol\";\n\n/**\n * @title The RandomNumberConsumerV2 contract\n * @notice A contract that gets random values from Chainlink VRF V2\n */\ncontract RandomNumberConsumerV2 is VRFConsumerBaseV2 {\n    VRFCoordinatorV2Interface immutable COORDINATOR;\n\n    // Your subscription ID.\n    uint64 immutable s_subscriptionId;\n\n    // The gas lane to use, which specifies the maximum gas price to bump to.\n    // For a list of available gas lanes on each network,\n    // see https://docs.chain.link/docs/vrf-contracts/#configurations\n    bytes32 immutable s_keyHash;\n\n    // Depends on the number of requested values that you want sent to the\n    // fulfillRandomWords() function. Storing each word costs about 20,000 gas,\n    // so 100,000 is a safe default for this example contract. Test and adjust\n    // this limit based on the network that you select, the size of the request,\n    // and the processing of the callback request in the fulfillRandomWords()\n    // function.\n    uint32 constant CALLBACK_GAS_LIMIT = 100000;\n\n    // The default is 3, but you can set this higher.\n    uint16 constant REQUEST_CONFIRMATIONS = 3;\n\n    // For this example, retrieve 2 random values in one request.\n    // Cannot exceed VRFCoordinatorV2.MAX_NUM_WORDS.\n    uint32 constant NUM_WORDS = 2;\n\n    uint256[] public s_randomWords;\n    uint256 public s_requestId;\n    address s_owner;\n\n    uint256 numMin = 20;\n    uint256 numMax = 100;\n    uint256 public numGenerated;\n    uint256 public numRanged;\n\n    event ReturnedRandomness(uint256[] randomWords);\n    event ReturnedRandomnessRanged(uint256 rangedWord);\n\n    /**\n     * @notice Constructor inherits VRFConsumerBaseV2\n     *\n     * @param subscriptionId - the subscription ID that this contract uses for funding requests\n     * @param vrfCoordinator - coordinator, check https://docs.chain.link/docs/vrf-contracts/#configurations\n     * @param keyHash - the gas lane to use, which specifies the maximum gas price to bump to\n     */\n    constructor(\n        uint64 subscriptionId,\n        address vrfCoordinator,\n        bytes32 keyHash\n    ) VRFConsumerBaseV2(vrfCoordinator) {\n        COORDINATOR = VRFCoordinatorV2Interface(vrfCoordinator);\n        s_keyHash = keyHash;\n        s_owner = msg.sender;\n        s_subscriptionId = subscriptionId;\n    }\n\n    /**\n     * @notice Requests randomness\n     * Assumes the subscription is funded sufficiently; \"Words\" refers to unit of data in Computer Science\n     */\n    function requestRandomWords() public {\n        // Will revert if subscription is not set and funded.\n        s_requestId = COORDINATOR.requestRandomWords(\n            s_keyHash,\n            s_subscriptionId,\n            REQUEST_CONFIRMATIONS,\n            CALLBACK_GAS_LIMIT,\n            NUM_WORDS\n        );\n    }\n\n    function getRandomWords() public {\n        requestRandomWords();\n    }\n\n    /**\n     * @notice Callback function used by VRF Coordinator\n     *\n     * @param randomWords - array of random results from VRF Coordinator\n     */\n    function fulfillRandomWords(\n        uint256, /*requestId*/\n        uint256[] memory randomWords\n    ) internal override {\n        s_randomWords = randomWords;\n        \n        numGenerated = randomWords[0];\n        numRanged = numGenerated % (numMax-numMin+1) + numMin;\n\n        emit ReturnedRandomness(randomWords);\n        emit ReturnedRandomnessRanged(numRanged);\n    }\n\n    function getSubscriptionId() public view returns (uint64) {\n        return s_subscriptionId;\n    }\n}\n",
  "sourcePath": "/Users/jing/white-elefun/backend/contracts/RandomNumberConsumerV2.sol",
  "compiler": {
    "name": "solc",
    "version": "0.8.13+commit.abaa5c0e.Emscripten.clang"
  },
  "schemaVersion": "3.4.10",
  "updatedAt": "2022-11-06T06:06:38.156Z",
  "devdoc": {
    "kind": "dev",
    "methods": {
      "constructor": {
        "params": {
          "keyHash": "- the gas lane to use, which specifies the maximum gas price to bump to",
          "subscriptionId": "- the subscription ID that this contract uses for funding requests",
          "vrfCoordinator": "- coordinator, check https://docs.chain.link/docs/vrf-contracts/#configurations"
        }
      }
    },
    "title": "The RandomNumberConsumerV2 contract",
    "version": 1
  },
  "userdoc": {
    "kind": "user",
    "methods": {
      "constructor": {
        "notice": "Constructor inherits VRFConsumerBaseV2"
      },
      "requestRandomWords()": {
        "notice": "Requests randomness Assumes the subscription is funded sufficiently; \"Words\" refers to unit of data in Computer Science"
      }
    },
    "notice": "A contract that gets random values from Chainlink VRF V2",
    "version": 1
  }
}